{
  "_format": "hh-sol-artifact-1",
  "contractName": "Domains",
  "sourceName": "contracts/Domains.sol",
  "abi": [
    {
      "inputs": [
        {
          "internalType": "string",
          "name": "_tld",
          "type": "string"
        }
      ],
      "stateMutability": "payable",
      "type": "constructor"
    },
    {
      "inputs": [],
      "name": "AlreadyRegistered",
      "type": "error"
    },
    {
      "inputs": [
        {
          "internalType": "string",
          "name": "name",
          "type": "string"
        }
      ],
      "name": "InvalidName",
      "type": "error"
    },
    {
      "inputs": [],
      "name": "Unauthorized",
      "type": "error"
    },
    {
      "anonymous": false,
      "inputs": [
        {
          "indexed": true,
          "internalType": "address",
          "name": "owner",
          "type": "address"
        },
        {
          "indexed": true,
          "internalType": "address",
          "name": "approved",
          "type": "address"
        },
        {
          "indexed": true,
          "internalType": "uint256",
          "name": "tokenId",
          "type": "uint256"
        }
      ],
      "name": "Approval",
      "type": "event"
    },
    {
      "anonymous": false,
      "inputs": [
        {
          "indexed": true,
          "internalType": "address",
          "name": "owner",
          "type": "address"
        },
        {
          "indexed": true,
          "internalType": "address",
          "name": "operator",
          "type": "address"
        },
        {
          "indexed": false,
          "internalType": "bool",
          "name": "approved",
          "type": "bool"
        }
      ],
      "name": "ApprovalForAll",
      "type": "event"
    },
    {
      "anonymous": false,
      "inputs": [
        {
          "indexed": true,
          "internalType": "address",
          "name": "from",
          "type": "address"
        },
        {
          "indexed": true,
          "internalType": "address",
          "name": "to",
          "type": "address"
        },
        {
          "indexed": true,
          "internalType": "uint256",
          "name": "tokenId",
          "type": "uint256"
        }
      ],
      "name": "Transfer",
      "type": "event"
    },
    {
      "inputs": [],
      "name": "TLD",
      "outputs": [
        {
          "internalType": "string",
          "name": "",
          "type": "string"
        }
      ],
      "stateMutability": "view",
      "type": "function"
    },
    {
      "inputs": [
        {
          "internalType": "address",
          "name": "to",
          "type": "address"
        },
        {
          "internalType": "uint256",
          "name": "tokenId",
          "type": "uint256"
        }
      ],
      "name": "approve",
      "outputs": [],
      "stateMutability": "nonpayable",
      "type": "function"
    },
    {
      "inputs": [
        {
          "internalType": "address",
          "name": "owner",
          "type": "address"
        }
      ],
      "name": "balanceOf",
      "outputs": [
        {
          "internalType": "uint256",
          "name": "",
          "type": "uint256"
        }
      ],
      "stateMutability": "view",
      "type": "function"
    },
    {
      "inputs": [
        {
          "internalType": "string",
          "name": "",
          "type": "string"
        }
      ],
      "name": "domains",
      "outputs": [
        {
          "internalType": "address",
          "name": "",
          "type": "address"
        }
      ],
      "stateMutability": "view",
      "type": "function"
    },
    {
      "inputs": [
        {
          "internalType": "string",
          "name": "_name",
          "type": "string"
        }
      ],
      "name": "getAddress",
      "outputs": [
        {
          "internalType": "address",
          "name": "",
          "type": "address"
        }
      ],
      "stateMutability": "view",
      "type": "function"
    },
    {
      "inputs": [],
      "name": "getAllNames",
      "outputs": [
        {
          "internalType": "string[]",
          "name": "",
          "type": "string[]"
        }
      ],
      "stateMutability": "view",
      "type": "function"
    },
    {
      "inputs": [
        {
          "internalType": "uint256",
          "name": "tokenId",
          "type": "uint256"
        }
      ],
      "name": "getApproved",
      "outputs": [
        {
          "internalType": "address",
          "name": "",
          "type": "address"
        }
      ],
      "stateMutability": "view",
      "type": "function"
    },
    {
      "inputs": [
        {
          "internalType": "string",
          "name": "_name",
          "type": "string"
        }
      ],
      "name": "getRecord",
      "outputs": [
        {
          "internalType": "string",
          "name": "",
          "type": "string"
        }
      ],
      "stateMutability": "view",
      "type": "function"
    },
    {
      "inputs": [
        {
          "internalType": "address",
          "name": "owner",
          "type": "address"
        },
        {
          "internalType": "address",
          "name": "operator",
          "type": "address"
        }
      ],
      "name": "isApprovedForAll",
      "outputs": [
        {
          "internalType": "bool",
          "name": "",
          "type": "bool"
        }
      ],
      "stateMutability": "view",
      "type": "function"
    },
    {
      "inputs": [],
      "name": "isOwner",
      "outputs": [
        {
          "internalType": "bool",
          "name": "",
          "type": "bool"
        }
      ],
      "stateMutability": "view",
      "type": "function"
    },
    {
      "inputs": [],
      "name": "name",
      "outputs": [
        {
          "internalType": "string",
          "name": "",
          "type": "string"
        }
      ],
      "stateMutability": "view",
      "type": "function"
    },
    {
      "inputs": [
        {
          "internalType": "uint256",
          "name": "",
          "type": "uint256"
        }
      ],
      "name": "names",
      "outputs": [
        {
          "internalType": "string",
          "name": "",
          "type": "string"
        }
      ],
      "stateMutability": "view",
      "type": "function"
    },
    {
      "inputs": [],
      "name": "owner",
      "outputs": [
        {
          "internalType": "address payable",
          "name": "",
          "type": "address"
        }
      ],
      "stateMutability": "view",
      "type": "function"
    },
    {
      "inputs": [
        {
          "internalType": "uint256",
          "name": "tokenId",
          "type": "uint256"
        }
      ],
      "name": "ownerOf",
      "outputs": [
        {
          "internalType": "address",
          "name": "",
          "type": "address"
        }
      ],
      "stateMutability": "view",
      "type": "function"
    },
    {
      "inputs": [
        {
          "internalType": "string",
          "name": "_name",
          "type": "string"
        }
      ],
      "name": "price",
      "outputs": [
        {
          "internalType": "uint256",
          "name": "",
          "type": "uint256"
        }
      ],
      "stateMutability": "pure",
      "type": "function"
    },
    {
      "inputs": [
        {
          "internalType": "string",
          "name": "",
          "type": "string"
        }
      ],
      "name": "records",
      "outputs": [
        {
          "internalType": "string",
          "name": "",
          "type": "string"
        }
      ],
      "stateMutability": "view",
      "type": "function"
    },
    {
      "inputs": [
        {
          "internalType": "string",
          "name": "_name",
          "type": "string"
        }
      ],
      "name": "register",
      "outputs": [],
      "stateMutability": "payable",
      "type": "function"
    },
    {
      "inputs": [
        {
          "internalType": "address",
          "name": "from",
          "type": "address"
        },
        {
          "internalType": "address",
          "name": "to",
          "type": "address"
        },
        {
          "internalType": "uint256",
          "name": "tokenId",
          "type": "uint256"
        }
      ],
      "name": "safeTransferFrom",
      "outputs": [],
      "stateMutability": "nonpayable",
      "type": "function"
    },
    {
      "inputs": [
        {
          "internalType": "address",
          "name": "from",
          "type": "address"
        },
        {
          "internalType": "address",
          "name": "to",
          "type": "address"
        },
        {
          "internalType": "uint256",
          "name": "tokenId",
          "type": "uint256"
        },
        {
          "internalType": "bytes",
          "name": "_data",
          "type": "bytes"
        }
      ],
      "name": "safeTransferFrom",
      "outputs": [],
      "stateMutability": "nonpayable",
      "type": "function"
    },
    {
      "inputs": [
        {
          "internalType": "address",
          "name": "operator",
          "type": "address"
        },
        {
          "internalType": "bool",
          "name": "approved",
          "type": "bool"
        }
      ],
      "name": "setApprovalForAll",
      "outputs": [],
      "stateMutability": "nonpayable",
      "type": "function"
    },
    {
      "inputs": [
        {
          "internalType": "string",
          "name": "_name",
          "type": "string"
        },
        {
          "internalType": "string",
          "name": "_record",
          "type": "string"
        }
      ],
      "name": "setRecord",
      "outputs": [],
      "stateMutability": "nonpayable",
      "type": "function"
    },
    {
      "inputs": [
        {
          "internalType": "bytes4",
          "name": "interfaceId",
          "type": "bytes4"
        }
      ],
      "name": "supportsInterface",
      "outputs": [
        {
          "internalType": "bool",
          "name": "",
          "type": "bool"
        }
      ],
      "stateMutability": "view",
      "type": "function"
    },
    {
      "inputs": [],
      "name": "symbol",
      "outputs": [
        {
          "internalType": "string",
          "name": "",
          "type": "string"
        }
      ],
      "stateMutability": "view",
      "type": "function"
    },
    {
      "inputs": [
        {
          "internalType": "uint256",
          "name": "tokenId",
          "type": "uint256"
        }
      ],
      "name": "tokenURI",
      "outputs": [
        {
          "internalType": "string",
          "name": "",
          "type": "string"
        }
      ],
      "stateMutability": "view",
      "type": "function"
    },
    {
      "inputs": [
        {
          "internalType": "address",
          "name": "from",
          "type": "address"
        },
        {
          "internalType": "address",
          "name": "to",
          "type": "address"
        },
        {
          "internalType": "uint256",
          "name": "tokenId",
          "type": "uint256"
        }
      ],
      "name": "transferFrom",
      "outputs": [],
      "stateMutability": "nonpayable",
      "type": "function"
    },
    {
      "inputs": [
        {
          "internalType": "string",
          "name": "name",
          "type": "string"
        }
      ],
      "name": "valid",
      "outputs": [
        {
          "internalType": "bool",
          "name": "",
          "type": "bool"
        }
      ],
      "stateMutability": "nonpayable",
      "type": "function"
    },
    {
      "inputs": [],
      "name": "withdraw",
      "outputs": [],
      "stateMutability": "nonpayable",
      "type": "function"
    }
  ],
  "bytecode": "0x6080604052604051806108a0016040528061086b81526020016200558661086b9139600a908051906020019062000038929190620002f5565b506040518060400160405280600d81526020017f3c2f746578743e3c2f7376673e00000000000000000000000000000000000000815250600b908051906020019062000086929190620002f5565b5060405162005df138038062005df18339818101604052810190620000ac919062000417565b6040518060400160405280601281526020017f4265696d61204e616d65205365727669636500000000000000000000000000008152506040518060400160405280600381526020017f424e530000000000000000000000000000000000000000000000000000000000815250816000908051906020019062000130929190620002f5565b50806001908051906020019062000149929190620002f5565b505050806008908051906020019062000164929190620002f5565b5033600960006101000a81548173ffffffffffffffffffffffffffffffffffffffff021916908373ffffffffffffffffffffffffffffffffffffffff160217905550620001f26040518060400160405280601881526020017f2573206e616d652073657276696365206465706c6f7965640000000000000000815250826200021060201b62001c031760201c565b620002096007620002b660201b62001c9f1760201c565b5062000664565b620002b28282604051602401620002299291906200049d565b6040516020818303038152906040527f4b5c4277000000000000000000000000000000000000000000000000000000007bffffffffffffffffffffffffffffffffffffffffffffffffffffffff19166020820180517bffffffffffffffffffffffffffffffffffffffffffffffffffffffff8381831617835250505050620002cc60201b60201c565b5050565b6001816000016000828254019250508190555050565b60008151905060006a636f6e736f6c652e6c6f679050602083016000808483855afa5050505050565b828054620003039062000589565b90600052602060002090601f01602090048101928262000327576000855562000373565b82601f106200034257805160ff191683800117855562000373565b8280016001018555821562000373579182015b828111156200037257825182559160200191906001019062000355565b5b50905062000382919062000386565b5090565b5b80821115620003a157600081600090555060010162000387565b5090565b6000620003bc620003b68462000501565b620004d8565b905082815260208101848484011115620003d557600080fd5b620003e284828562000553565b509392505050565b600082601f830112620003fc57600080fd5b81516200040e848260208601620003a5565b91505092915050565b6000602082840312156200042a57600080fd5b600082015167ffffffffffffffff8111156200044557600080fd5b6200045384828501620003ea565b91505092915050565b6000620004698262000537565b62000475818562000542565b93506200048781856020860162000553565b620004928162000653565b840191505092915050565b60006040820190508181036000830152620004b981856200045c565b90508181036020830152620004cf81846200045c565b90509392505050565b6000620004e4620004f7565b9050620004f28282620005bf565b919050565b6000604051905090565b600067ffffffffffffffff8211156200051f576200051e62000624565b5b6200052a8262000653565b9050602081019050919050565b600081519050919050565b600082825260208201905092915050565b60005b838110156200057357808201518184015260208101905062000556565b8381111562000583576000848401525b50505050565b60006002820490506001821680620005a257607f821691505b60208210811415620005b957620005b8620005f5565b5b50919050565b620005ca8262000653565b810181811067ffffffffffffffff82111715620005ec57620005eb62000624565b5b80604052505050565b7f4e487b7100000000000000000000000000000000000000000000000000000000600052602260045260246000fd5b7f4e487b7100000000000000000000000000000000000000000000000000000000600052604160045260246000fd5b6000601f19601f8301169050919050565b614f1280620006746000396000f3fe60806040526004361061019c5760003560e01c806370a08231116100ec578063bf40fac11161008a578063e985e9c511610064578063e985e9c514610624578063f2c298be14610661578063fb825e5f1461067d578063fe2c6198146106a85761019c565b8063bf40fac114610581578063c1880a98146105be578063c87b56dd146105e75761019c565b806395d89b41116100c657806395d89b41146104c75780639791c097146104f2578063a22cb4651461052f578063b88d4fde146105585761019c565b806370a08231146104345780638da5cb5b146104715780638f32d59b1461049c5761019c565b806323b872dd1161015957806342842e0e1161013357806342842e0e146103545780634622ab031461037d578063541e771d146103ba5780636352211e146103f75761019c565b806323b872dd146102d757806326449235146103005780633ccfd60b1461033d5761019c565b806301ffc9a7146101a157806306fdde03146101de578063081812fc14610209578063095ea7b31461024657806311dd88451461026f57806313a0bd7e146102ac575b600080fd5b3480156101ad57600080fd5b506101c860048036038101906101c391906134e9565b6106e5565b6040516101d59190613e7c565b60405180910390f35b3480156101ea57600080fd5b506101f36107c7565b6040516102009190613ebb565b60405180910390f35b34801561021557600080fd5b50610230600480360381019061022b9190613636565b610859565b60405161023d9190613dd8565b60405180910390f35b34801561025257600080fd5b5061026d600480360381019061026891906134ad565b6108de565b005b34801561027b57600080fd5b506102966004803603810190610291919061353b565b6109f6565b6040516102a39190613ebb565b60405180910390f35b3480156102b857600080fd5b506102c1610aa9565b6040516102ce9190613ebb565b60405180910390f35b3480156102e357600080fd5b506102fe60048036038101906102f991906133a7565b610b37565b005b34801561030c57600080fd5b50610327600480360381019061032291906135f5565b610b97565b6040516103349190613dd8565b60405180910390f35b34801561034957600080fd5b50610352610be0565b005b34801561036057600080fd5b5061037b600480360381019061037691906133a7565b610ca6565b005b34801561038957600080fd5b506103a4600480360381019061039f9190613636565b610cc6565b6040516103b19190613ebb565b60405180910390f35b3480156103c657600080fd5b506103e160048036038101906103dc91906135f5565b610d66565b6040516103ee9190613ebb565b60405180910390f35b34801561040357600080fd5b5061041e60048036038101906104199190613636565b610e1c565b60405161042b9190613dd8565b60405180910390f35b34801561044057600080fd5b5061045b60048036038101906104569190613342565b610ece565b6040516104689190614283565b60405180910390f35b34801561047d57600080fd5b50610486610f86565b6040516104939190613df3565b60405180910390f35b3480156104a857600080fd5b506104b1610fac565b6040516104be9190613e7c565b60405180910390f35b3480156104d357600080fd5b506104dc611004565b6040516104e99190613ebb565b60405180910390f35b3480156104fe57600080fd5b506105196004803603810190610514919061353b565b611096565b6040516105269190613e7c565b60405180910390f35b34801561053b57600080fd5b5061055660048036038101906105519190613471565b61114a565b005b34801561056457600080fd5b5061057f600480360381019061057a91906133f6565b611160565b005b34801561058d57600080fd5b506105a860048036038101906105a3919061353b565b6111c2565b6040516105b59190613dd8565b60405180910390f35b3480156105ca57600080fd5b506105e560048036038101906105e09190613580565b61120d565b005b3480156105f357600080fd5b5061060e60048036038101906106099190613636565b6112f1565b60405161061b9190613ebb565b60405180910390f35b34801561063057600080fd5b5061064b6004803603810190610646919061336b565b611443565b6040516106589190613e7c565b60405180910390f35b61067b6004803603810190610676919061353b565b6114d7565b005b34801561068957600080fd5b506106926118d7565b60405161069f9190613e5a565b60405180910390f35b3480156106b457600080fd5b506106cf60048036038101906106ca919061353b565b611b27565b6040516106dc9190614283565b60405180910390f35b60007f80ac58cd000000000000000000000000000000000000000000000000000000007bffffffffffffffffffffffffffffffffffffffffffffffffffffffff1916827bffffffffffffffffffffffffffffffffffffffffffffffffffffffff191614806107b057507f5b5e139f000000000000000000000000000000000000000000000000000000007bffffffffffffffffffffffffffffffffffffffffffffffffffffffff1916827bffffffffffffffffffffffffffffffffffffffffffffffffffffffff1916145b806107c057506107bf82611cb5565b5b9050919050565b6060600080546107d6906145af565b80601f0160208091040260200160405190810160405280929190818152602001828054610802906145af565b801561084f5780601f106108245761010080835404028352916020019161084f565b820191906000526020600020905b81548152906001019060200180831161083257829003601f168201915b5050505050905090565b600061086482611d1f565b6108a3576040517f08c379a000000000000000000000000000000000000000000000000000000000815260040161089a906141c3565b60405180910390fd5b6004600083815260200190815260200160002060009054906101000a900473ffffffffffffffffffffffffffffffffffffffff169050919050565b60006108e982610e1c565b90508073ffffffffffffffffffffffffffffffffffffffff168373ffffffffffffffffffffffffffffffffffffffff16141561095a576040517f08c379a000000000000000000000000000000000000000000000000000000000815260040161095190614223565b60405180910390fd5b8073ffffffffffffffffffffffffffffffffffffffff16610979611d8b565b73ffffffffffffffffffffffffffffffffffffffff1614806109a857506109a7816109a2611d8b565b611443565b5b6109e7576040517f08c379a00000000000000000000000000000000000000000000000000000000081526004016109de906140e3565b60405180910390fd5b6109f18383611d93565b505050565b6060600d8383604051610a0a929190613ca5565b90815260200160405180910390208054610a23906145af565b80601f0160208091040260200160405190810160405280929190818152602001828054610a4f906145af565b8015610a9c5780601f10610a7157610100808354040283529160200191610a9c565b820191906000526020600020905b815481529060010190602001808311610a7f57829003601f168201915b5050505050905092915050565b60088054610ab6906145af565b80601f0160208091040260200160405190810160405280929190818152602001828054610ae2906145af565b8015610b2f5780601f10610b0457610100808354040283529160200191610b2f565b820191906000526020600020905b815481529060010190602001808311610b1257829003601f168201915b505050505081565b610b48610b42611d8b565b82611e4c565b610b87576040517f08c379a0000000000000000000000000000000000000000000000000000000008152600401610b7e90614243565b60405180910390fd5b610b92838383611f2a565b505050565b600c818051602081018201805184825260208301602085012081835280955050505050506000915054906101000a900473ffffffffffffffffffffffffffffffffffffffff1681565b610be8610fac565b610bf157600080fd5b600047905060003373ffffffffffffffffffffffffffffffffffffffff1682604051610c1c90613dc3565b60006040518083038185875af1925050503d8060008114610c59576040519150601f19603f3d011682016040523d82523d6000602084013e610c5e565b606091505b5050905080610ca2576040517f08c379a0000000000000000000000000000000000000000000000000000000008152600401610c9990614203565b60405180910390fd5b5050565b610cc183838360405180602001604052806000815250611160565b505050565b600e6020528060005260406000206000915090508054610ce5906145af565b80601f0160208091040260200160405190810160405280929190818152602001828054610d11906145af565b8015610d5e5780601f10610d3357610100808354040283529160200191610d5e565b820191906000526020600020905b815481529060010190602001808311610d4157829003601f168201915b505050505081565b600d818051602081018201805184825260208301602085012081835280955050505050506000915090508054610d9b906145af565b80601f0160208091040260200160405190810160405280929190818152602001828054610dc7906145af565b8015610e145780601f10610de957610100808354040283529160200191610e14565b820191906000526020600020905b815481529060010190602001808311610df757829003601f168201915b505050505081565b6000806002600084815260200190815260200160002060009054906101000a900473ffffffffffffffffffffffffffffffffffffffff169050600073ffffffffffffffffffffffffffffffffffffffff168173ffffffffffffffffffffffffffffffffffffffff161415610ec5576040517f08c379a0000000000000000000000000000000000000000000000000000000008152600401610ebc90614143565b60405180910390fd5b80915050919050565b60008073ffffffffffffffffffffffffffffffffffffffff168273ffffffffffffffffffffffffffffffffffffffff161415610f3f576040517f08c379a0000000000000000000000000000000000000000000000000000000008152600401610f3690614123565b60405180910390fd5b600360008373ffffffffffffffffffffffffffffffffffffffff1673ffffffffffffffffffffffffffffffffffffffff168152602001908152602001600020549050919050565b600960009054906101000a900473ffffffffffffffffffffffffffffffffffffffff1681565b6000600960009054906101000a900473ffffffffffffffffffffffffffffffffffffffff1673ffffffffffffffffffffffffffffffffffffffff163373ffffffffffffffffffffffffffffffffffffffff1614905090565b606060018054611013906145af565b80601f016020809104026020016040519081016040528092919081815260200182805461103f906145af565b801561108c5780601f106110615761010080835404028352916020019161108c565b820191906000526020600020905b81548152906001019060200180831161106f57829003601f168201915b5050505050905090565b600060036110e784848080601f016020809104026020016040519081016040528093929190818152602001838380828437600081840152601f19601f82011690508083019250505050505050612191565b101580156111425750600a61113f84848080601f016020809104026020016040519081016040528093929190818152602001838380828437600081840152601f19601f82011690508083019250505050505050612191565b11155b905092915050565b61115c611155611d8b565b838361236c565b5050565b61117161116b611d8b565b83611e4c565b6111b0576040517f08c379a00000000000000000000000000000000000000000000000000000000081526004016111a790614243565b60405180910390fd5b6111bc848484846124d9565b50505050565b6000600c83836040516111d6929190613ca5565b908152602001604051809103902060009054906101000a900473ffffffffffffffffffffffffffffffffffffffff16905092915050565b3373ffffffffffffffffffffffffffffffffffffffff16600c8585604051611236929190613ca5565b908152602001604051809103902060009054906101000a900473ffffffffffffffffffffffffffffffffffffffff1673ffffffffffffffffffffffffffffffffffffffff16146112bb576040517f08c379a00000000000000000000000000000000000000000000000000000000081526004016112b2906140c3565b60405180910390fd5b8181600d86866040516112cf929190613ca5565b908152602001604051809103902091906112ea929190613096565b5050505050565b60606112fc82611d1f565b61133b576040517f08c379a0000000000000000000000000000000000000000000000000000000008152600401611332906141a3565b60405180910390fd5b600060066000848152602001908152602001600020805461135b906145af565b80601f0160208091040260200160405190810160405280929190818152602001828054611387906145af565b80156113d45780601f106113a9576101008083540402835291602001916113d4565b820191906000526020600020905b8154815290600101906020018083116113b757829003601f168201915b5050505050905060006113e5612535565b90506000815114156113fb57819250505061143e565b600082511115611430578082604051602001611418929190613cef565b6040516020818303038152906040529250505061143e565b6114398461254c565b925050505b919050565b6000600560008473ffffffffffffffffffffffffffffffffffffffff1673ffffffffffffffffffffffffffffffffffffffff16815260200190815260200160002060008373ffffffffffffffffffffffffffffffffffffffff1673ffffffffffffffffffffffffffffffffffffffff16815260200190815260200160002060009054906101000a900460ff16905092915050565b600073ffffffffffffffffffffffffffffffffffffffff16600c8383604051611501929190613ca5565b908152602001604051809103902060009054906101000a900473ffffffffffffffffffffffffffffffffffffffff1673ffffffffffffffffffffffffffffffffffffffff1614611586576040517f08c379a000000000000000000000000000000000000000000000000000000000815260040161157d90614043565b60405180910390fd5b6115908282611096565b6115d35781816040517f7f19f48d0000000000000000000000000000000000000000000000000000000081526004016115ca929190613e97565b60405180910390fd5b60006115df8383611b27565b9050803411611623576040517f08c379a000000000000000000000000000000000000000000000000000000000815260040161161a90614103565b60405180910390fd5b60008383600860405160200161163b93929190613cbe565b60405160208183030381529060405290506000600a82600b60405160200161166593929190613d13565b6040516020818303038152906040529050600061168260076125f3565b905060006116d387878080601f016020809104026020016040519081016040528093929190818152602001838380828437600081840152601f19601f82011690508083019250505050505050612191565b905060006116e082612601565b9050611790604051806060016040528060318152602001614e6c60319139866008805461170c906145af565b80601f0160208091040260200160405190810160405280929190818152602001828054611738906145af565b80156117855780601f1061175a57610100808354040283529160200191611785565b820191906000526020600020905b81548152906001019060200180831161176857829003601f168201915b5050505050866127ae565b60006117c68661179f87612850565b846040516020016117b293929190613d44565b604051602081830303815290604052612850565b90506000816040516020016117db9190613da1565b60405160208183030381529060405290506117f63386612a0e565b6118008582612a2c565b33600c8b8b604051611813929190613ca5565b908152602001604051809103902060006101000a81548173ffffffffffffffffffffffffffffffffffffffff021916908373ffffffffffffffffffffffffffffffffffffffff1602179055508989600e60008881526020019081526020016000209190611881929190613096565b506118c16040518060400160405280601b81526020017f2573206861732072656769737465726564206120646f6d61696e21000000000081525033612aa0565b6118cb6007611c9f565b50505050505050505050565b60606119176040518060400160405280601c81526020017f47657474696e6720616c6c206e616d6573207265676973746572656400000000815250612b3c565b600061192360076125f3565b67ffffffffffffffff811115611962577f4e487b7100000000000000000000000000000000000000000000000000000000600052604160045260246000fd5b60405190808252806020026020018201604052801561199557816020015b60608152602001906001900390816119805790505b50905060005b6119a560076125f3565b811015611b1f57600e600082815260200190815260200160002080546119ca906145af565b80601f01602080910402602001604051908101604052809291908181526020018280546119f6906145af565b8015611a435780601f10611a1857610100808354040283529160200191611a43565b820191906000526020600020905b815481529060010190602001808311611a2657829003601f168201915b5050505050828281518110611a81577f4e487b7100000000000000000000000000000000000000000000000000000000600052603260045260246000fd5b6020026020010181905250611b0c6040518060400160405280601781526020017f4e616d6520666f7220746f6b656e20256420697320257300000000000000000081525082848481518110611aff577f4e487b7100000000000000000000000000000000000000000000000000000000600052603260045260246000fd5b6020026020010151612bd5565b8080611b1790614612565b91505061199b565b508091505090565b600080611b7784848080601f016020809104026020016040519081016040528093929190818152602001838380828437600081840152601f19601f82011690508083019250505050505050612191565b905060008111611bbc576040517f08c379a0000000000000000000000000000000000000000000000000000000008152600401611bb390614263565b60405180910390fd5b6003811415611bd657670429d069189e0000915050611bfd565b6004811415611bf0576702c68af0bb140000915050611bfd565b67016345785d8a00009150505b92915050565b611c9b8282604051602401611c19929190613f0d565b6040516020818303038152906040527f4b5c4277000000000000000000000000000000000000000000000000000000007bffffffffffffffffffffffffffffffffffffffffffffffffffffffff19166020820180517bffffffffffffffffffffffffffffffffffffffffffffffffffffffff8381831617835250505050612c74565b5050565b6001816000016000828254019250508190555050565b60007f01ffc9a7000000000000000000000000000000000000000000000000000000007bffffffffffffffffffffffffffffffffffffffffffffffffffffffff1916827bffffffffffffffffffffffffffffffffffffffffffffffffffffffff1916149050919050565b60008073ffffffffffffffffffffffffffffffffffffffff166002600084815260200190815260200160002060009054906101000a900473ffffffffffffffffffffffffffffffffffffffff1673ffffffffffffffffffffffffffffffffffffffff1614159050919050565b600033905090565b816004600083815260200190815260200160002060006101000a81548173ffffffffffffffffffffffffffffffffffffffff021916908373ffffffffffffffffffffffffffffffffffffffff160217905550808273ffffffffffffffffffffffffffffffffffffffff16611e0683610e1c565b73ffffffffffffffffffffffffffffffffffffffff167f8c5be1e5ebec7d5bd14f71427d1e84f3dd0314c0f7b2291e5b200ac8c7c3b92560405160405180910390a45050565b6000611e5782611d1f565b611e96576040517f08c379a0000000000000000000000000000000000000000000000000000000008152600401611e8d906140a3565b60405180910390fd5b6000611ea183610e1c565b90508073ffffffffffffffffffffffffffffffffffffffff168473ffffffffffffffffffffffffffffffffffffffff161480611f1057508373ffffffffffffffffffffffffffffffffffffffff16611ef884610859565b73ffffffffffffffffffffffffffffffffffffffff16145b80611f215750611f208185611443565b5b91505092915050565b8273ffffffffffffffffffffffffffffffffffffffff16611f4a82610e1c565b73ffffffffffffffffffffffffffffffffffffffff1614611fa0576040517f08c379a0000000000000000000000000000000000000000000000000000000008152600401611f9790614003565b60405180910390fd5b600073ffffffffffffffffffffffffffffffffffffffff168273ffffffffffffffffffffffffffffffffffffffff161415612010576040517f08c379a000000000000000000000000000000000000000000000000000000000815260040161200790614063565b60405180910390fd5b61201b838383612c9d565b612026600082611d93565b6001600360008573ffffffffffffffffffffffffffffffffffffffff1673ffffffffffffffffffffffffffffffffffffffff168152602001908152602001600020600082825461207691906144b3565b925050819055506001600360008473ffffffffffffffffffffffffffffffffffffffff1673ffffffffffffffffffffffffffffffffffffffff16815260200190815260200160002060008282546120cd91906143d2565b92505081905550816002600083815260200190815260200160002060006101000a81548173ffffffffffffffffffffffffffffffffffffffff021916908373ffffffffffffffffffffffffffffffffffffffff160217905550808273ffffffffffffffffffffffffffffffffffffffff168473ffffffffffffffffffffffffffffffffffffffff167fddf252ad1be2c89b69c2b068fc378daa952ba7f163c4a11628f55a4df523b3ef60405160405180910390a461218c838383612ca2565b505050565b60008060008084519050600092505b808210156123615760008583815181106121e3577f4e487b7100000000000000000000000000000000000000000000000000000000600052603260045260246000fd5b602001015160f81c60f81b9050608060f81b817effffffffffffffffffffffffffffffffffffffffffffffffffffffffffffff191610156122325760018361222b91906143d2565b925061234d565b60e060f81b817effffffffffffffffffffffffffffffffffffffffffffffffffffffffffffff191610156122745760028361226d91906143d2565b925061234c565b60f060f81b817effffffffffffffffffffffffffffffffffffffffffffffffffffffffffffff191610156122b6576003836122af91906143d2565b925061234b565b60f8801b817effffffffffffffffffffffffffffffffffffffffffffffffffffffffffffff191610156122f7576004836122f091906143d2565b925061234a565b60fc60f81b817effffffffffffffffffffffffffffffffffffffffffffffffffffffffffffff191610156123395760058361233291906143d2565b9250612349565b60068361234691906143d2565b92505b5b5b5b5b50828061235990614612565b9350506121a0565b829350505050919050565b8173ffffffffffffffffffffffffffffffffffffffff168373ffffffffffffffffffffffffffffffffffffffff1614156123db576040517f08c379a00000000000000000000000000000000000000000000000000000000081526004016123d290614083565b60405180910390fd5b80600560008573ffffffffffffffffffffffffffffffffffffffff1673ffffffffffffffffffffffffffffffffffffffff16815260200190815260200160002060008473ffffffffffffffffffffffffffffffffffffffff1673ffffffffffffffffffffffffffffffffffffffff16815260200190815260200160002060006101000a81548160ff0219169083151502179055508173ffffffffffffffffffffffffffffffffffffffff168373ffffffffffffffffffffffffffffffffffffffff167f17307eab39ab6107e8899845ad3d59bd9653f200f220920489ca2b5937696c31836040516124cc9190613e7c565b60405180910390a3505050565b6124e4848484611f2a565b6124f084848484612ca7565b61252f576040517f08c379a000000000000000000000000000000000000000000000000000000000815260040161252690613fe3565b60405180910390fd5b50505050565b606060405180602001604052806000815250905090565b606061255782611d1f565b612596576040517f08c379a000000000000000000000000000000000000000000000000000000000815260040161258d906141e3565b60405180910390fd5b60006125a0612535565b905060008151116125c057604051806020016040528060008152506125eb565b806125ca84612601565b6040516020016125db929190613cef565b6040516020818303038152906040525b915050919050565b600081600001549050919050565b60606000821415612649576040518060400160405280600181526020017f300000000000000000000000000000000000000000000000000000000000000081525090506127a9565b600082905060005b6000821461267b57808061266490614612565b915050600a826126749190614428565b9150612651565b60008167ffffffffffffffff8111156126bd577f4e487b7100000000000000000000000000000000000000000000000000000000600052604160045260246000fd5b6040519080825280601f01601f1916602001820160405280156126ef5781602001600182028036833780820191505090505b5090505b600085146127a25760018261270891906144b3565b9150600a85612717919061465b565b603061272391906143d2565b60f81b81838151811061275f577f4e487b7100000000000000000000000000000000000000000000000000000000600052603260045260246000fd5b60200101907effffffffffffffffffffffffffffffffffffffffffffffffffffffffffffff1916908160001a905350600a8561279b9190614428565b94506126f3565b8093505050505b919050565b61284a848484846040516024016127c89493929190613f44565b6040516020818303038152906040527f9fd009f5000000000000000000000000000000000000000000000000000000007bffffffffffffffffffffffffffffffffffffffffffffffffffffffff19166020820180517bffffffffffffffffffffffffffffffffffffffffffffffffffffffff8381831617835250505050612c74565b50505050565b606060008251905060008114156128795760405180602001604052806000815250915050612a09565b6000600360028361288a91906143d2565b6128949190614428565b60046128a09190614459565b905060006020826128b191906143d2565b67ffffffffffffffff8111156128f0577f4e487b7100000000000000000000000000000000000000000000000000000000600052604160045260246000fd5b6040519080825280601f01601f1916602001820160405280156129225781602001600182028036833780820191505090505b5090506000604051806060016040528060408152602001614e9d604091399050600181016020830160005b868110156129c65760038101905062ffffff818a015116603f8160121c168401518060081b905060ff603f83600c1c1686015116810190508060081b905060ff603f8360061c1686015116810190508060081b905060ff603f831686015116810190508060e01b9050808452600484019350505061294d565b5060038606600181146129e057600281146129f0576129fb565b613d3d60f01b60028303526129fb565b603d60f81b60018303525b508484525050819450505050505b919050565b612a28828260405180602001604052806000815250612e3e565b5050565b612a3582611d1f565b612a74576040517f08c379a0000000000000000000000000000000000000000000000000000000008152600401612a6b90614163565b60405180910390fd5b80600660008481526020019081526020016000209080519060200190612a9b92919061311c565b505050565b612b388282604051602401612ab6929190613edd565b6040516020818303038152906040527f319af333000000000000000000000000000000000000000000000000000000007bffffffffffffffffffffffffffffffffffffffffffffffffffffffff19166020820180517bffffffffffffffffffffffffffffffffffffffffffffffffffffffff8381831617835250505050612c74565b5050565b612bd281604051602401612b509190613ebb565b6040516020818303038152906040527f41304fac000000000000000000000000000000000000000000000000000000007bffffffffffffffffffffffffffffffffffffffffffffffffffffffff19166020820180517bffffffffffffffffffffffffffffffffffffffffffffffffffffffff8381831617835250505050612c74565b50565b612c6f838383604051602401612bed93929190613f9e565b6040516020818303038152906040527fa3f5c739000000000000000000000000000000000000000000000000000000007bffffffffffffffffffffffffffffffffffffffffffffffffffffffff19166020820180517bffffffffffffffffffffffffffffffffffffffffffffffffffffffff8381831617835250505050612c74565b505050565b60008151905060006a636f6e736f6c652e6c6f679050602083016000808483855afa5050505050565b505050565b505050565b6000612cc88473ffffffffffffffffffffffffffffffffffffffff16612e99565b15612e31578373ffffffffffffffffffffffffffffffffffffffff1663150b7a02612cf1611d8b565b8786866040518563ffffffff1660e01b8152600401612d139493929190613e0e565b602060405180830381600087803b158015612d2d57600080fd5b505af1925050508015612d5e57506040513d601f19601f82011682018060405250810190612d5b9190613512565b60015b612de1573d8060008114612d8e576040519150601f19603f3d011682016040523d82523d6000602084013e612d93565b606091505b50600081511415612dd9576040517f08c379a0000000000000000000000000000000000000000000000000000000008152600401612dd090613fe3565b60405180910390fd5b805181602001fd5b63150b7a0260e01b7bffffffffffffffffffffffffffffffffffffffffffffffffffffffff1916817bffffffffffffffffffffffffffffffffffffffffffffffffffffffff191614915050612e36565b600190505b949350505050565b612e488383612ebc565b612e556000848484612ca7565b612e94576040517f08c379a0000000000000000000000000000000000000000000000000000000008152600401612e8b90613fe3565b60405180910390fd5b505050565b6000808273ffffffffffffffffffffffffffffffffffffffff163b119050919050565b600073ffffffffffffffffffffffffffffffffffffffff168273ffffffffffffffffffffffffffffffffffffffff161415612f2c576040517f08c379a0000000000000000000000000000000000000000000000000000000008152600401612f2390614183565b60405180910390fd5b612f3581611d1f565b15612f75576040517f08c379a0000000000000000000000000000000000000000000000000000000008152600401612f6c90614023565b60405180910390fd5b612f8160008383612c9d565b6001600360008473ffffffffffffffffffffffffffffffffffffffff1673ffffffffffffffffffffffffffffffffffffffff1681526020019081526020016000206000828254612fd191906143d2565b92505081905550816002600083815260200190815260200160002060006101000a81548173ffffffffffffffffffffffffffffffffffffffff021916908373ffffffffffffffffffffffffffffffffffffffff160217905550808273ffffffffffffffffffffffffffffffffffffffff16600073ffffffffffffffffffffffffffffffffffffffff167fddf252ad1be2c89b69c2b068fc378daa952ba7f163c4a11628f55a4df523b3ef60405160405180910390a461309260008383612ca2565b5050565b8280546130a2906145af565b90600052602060002090601f0160209004810192826130c4576000855561310b565b82601f106130dd57803560ff191683800117855561310b565b8280016001018555821561310b579182015b8281111561310a5782358255916020019190600101906130ef565b5b50905061311891906131a2565b5090565b828054613128906145af565b90600052602060002090601f01602090048101928261314a5760008555613191565b82601f1061316357805160ff1916838001178555613191565b82800160010185558215613191579182015b82811115613190578251825591602001919060010190613175565b5b50905061319e91906131a2565b5090565b5b808211156131bb5760008160009055506001016131a3565b5090565b60006131d26131cd846142c3565b61429e565b9050828152602081018484840111156131ea57600080fd5b6131f584828561456d565b509392505050565b600061321061320b846142f4565b61429e565b90508281526020810184848401111561322857600080fd5b61323384828561456d565b509392505050565b60008135905061324a81614e0f565b92915050565b60008135905061325f81614e26565b92915050565b60008135905061327481614e3d565b92915050565b60008151905061328981614e3d565b92915050565b600082601f8301126132a057600080fd5b81356132b08482602086016131bf565b91505092915050565b60008083601f8401126132cb57600080fd5b8235905067ffffffffffffffff8111156132e457600080fd5b6020830191508360018202830111156132fc57600080fd5b9250929050565b600082601f83011261331457600080fd5b81356133248482602086016131fd565b91505092915050565b60008135905061333c81614e54565b92915050565b60006020828403121561335457600080fd5b60006133628482850161323b565b91505092915050565b6000806040838503121561337e57600080fd5b600061338c8582860161323b565b925050602061339d8582860161323b565b9150509250929050565b6000806000606084860312156133bc57600080fd5b60006133ca8682870161323b565b93505060206133db8682870161323b565b92505060406133ec8682870161332d565b9150509250925092565b6000806000806080858703121561340c57600080fd5b600061341a8782880161323b565b945050602061342b8782880161323b565b935050604061343c8782880161332d565b925050606085013567ffffffffffffffff81111561345957600080fd5b6134658782880161328f565b91505092959194509250565b6000806040838503121561348457600080fd5b60006134928582860161323b565b92505060206134a385828601613250565b9150509250929050565b600080604083850312156134c057600080fd5b60006134ce8582860161323b565b92505060206134df8582860161332d565b9150509250929050565b6000602082840312156134fb57600080fd5b600061350984828501613265565b91505092915050565b60006020828403121561352457600080fd5b60006135328482850161327a565b91505092915050565b6000806020838503121561354e57600080fd5b600083013567ffffffffffffffff81111561356857600080fd5b613574858286016132b9565b92509250509250929050565b6000806000806040858703121561359657600080fd5b600085013567ffffffffffffffff8111156135b057600080fd5b6135bc878288016132b9565b9450945050602085013567ffffffffffffffff8111156135db57600080fd5b6135e7878288016132b9565b925092505092959194509250565b60006020828403121561360757600080fd5b600082013567ffffffffffffffff81111561362157600080fd5b61362d84828501613303565b91505092915050565b60006020828403121561364857600080fd5b60006136568482850161332d565b91505092915050565b600061366b83836137a0565b905092915050565b61367c816144f9565b82525050565b61368b816144e7565b82525050565b600061369c8261434a565b6136a68185614378565b9350836020820285016136b885614325565b8060005b858110156136f457848403895281516136d5858261365f565b94506136e08361436b565b925060208a019950506001810190506136bc565b50829750879550505050505092915050565b61370f8161450b565b82525050565b600061372082614355565b61372a8185614389565b935061373a81856020860161457c565b61374381614748565b840191505092915050565b600061375a83856143b6565b935061376783858461456d565b61377083614748565b840190509392505050565b600061378783856143c7565b935061379483858461456d565b82840190509392505050565b60006137ab82614360565b6137b581856143a5565b93506137c581856020860161457c565b6137ce81614748565b840191505092915050565b60006137e482614360565b6137ee81856143b6565b93506137fe81856020860161457c565b61380781614748565b840191505092915050565b600061381d82614360565b61382781856143c7565b935061383781856020860161457c565b80840191505092915050565b60008154613850816145af565b61385a81866143c7565b945060018216600081146138755760018114613886576138b9565b60ff198316865281860193506138b9565b61388f85614335565b60005b838110156138b157815481890152600182019150602081019050613892565b838801955050505b50505092915050565b60006138cf6032836143b6565b91506138da82614759565b604082019050919050565b60006138f26025836143b6565b91506138fd826147a8565b604082019050919050565b6000613915601c836143b6565b9150613920826147f7565b602082019050919050565b60006139386014836143b6565b915061394382614820565b602082019050919050565b600061395b6024836143b6565b915061396682614849565b604082019050919050565b600061397e6019836143b6565b915061398982614898565b602082019050919050565b60006139a1600e836143c7565b91506139ac826148c1565b600e82019050919050565b60006139c4602c836143b6565b91506139cf826148ea565b604082019050919050565b60006139e76019836143b6565b91506139f282614939565b602082019050919050565b6000613a0a6038836143b6565b9150613a1582614962565b604082019050919050565b6000613a2d6001836143c7565b9150613a38826149b1565b600182019050919050565b6000613a50602a836143b6565b9150613a5b826149da565b604082019050919050565b6000613a73602a836143b6565b9150613a7e82614a29565b604082019050919050565b6000613a966029836143b6565b9150613aa182614a78565b604082019050919050565b6000613ab9602e836143b6565b9150613ac482614ac7565b604082019050919050565b6000613adc6002836143c7565b9150613ae782614b16565b600282019050919050565b6000613aff6020836143b6565b9150613b0a82614b3f565b602082019050919050565b6000613b226031836143b6565b9150613b2d82614b68565b604082019050919050565b6000613b45602c836143b6565b9150613b5082614bb7565b604082019050919050565b6000613b68602f836143b6565b9150613b7382614c06565b604082019050919050565b6000613b8b6012836143b6565b9150613b9682614c55565b602082019050919050565b6000613bae600a836143c7565b9150613bb982614c7e565b600a82019050919050565b6000613bd16021836143b6565b9150613bdc82614ca7565b604082019050919050565b6000613bf4601d836143c7565b9150613bff82614cf6565b601d82019050919050565b6000613c1760008361439a565b9150613c2282614d1f565b600082019050919050565b6000613c3a6031836143b6565b9150613c4582614d22565b604082019050919050565b6000613c5d6014836143b6565b9150613c6882614d71565b602082019050919050565b6000613c80605d836143c7565b9150613c8b82614d9a565b605d82019050919050565b613c9f81614563565b82525050565b6000613cb282848661377b565b91508190509392505050565b6000613ccb82858761377b565b9150613cd682613a20565b9150613ce28284613843565b9150819050949350505050565b6000613cfb8285613812565b9150613d078284613812565b91508190509392505050565b6000613d1f8286613843565b9150613d2b8285613812565b9150613d378284613843565b9150819050949350505050565b6000613d4f82613ba1565b9150613d5b8286613812565b9150613d6682613c73565b9150613d728285613812565b9150613d7d82613994565b9150613d898284613812565b9150613d9482613acf565b9150819050949350505050565b6000613dac82613be7565b9150613db88284613812565b915081905092915050565b6000613dce82613c0a565b9150819050919050565b6000602082019050613ded6000830184613682565b92915050565b6000602082019050613e086000830184613673565b92915050565b6000608082019050613e236000830187613682565b613e306020830186613682565b613e3d6040830185613c96565b8181036060830152613e4f8184613715565b905095945050505050565b60006020820190508181036000830152613e748184613691565b905092915050565b6000602082019050613e916000830184613706565b92915050565b60006020820190508181036000830152613eb281848661374e565b90509392505050565b60006020820190508181036000830152613ed581846137d9565b905092915050565b60006040820190508181036000830152613ef781856137d9565b9050613f066020830184613682565b9392505050565b60006040820190508181036000830152613f2781856137d9565b90508181036020830152613f3b81846137d9565b90509392505050565b60006080820190508181036000830152613f5e81876137d9565b90508181036020830152613f7281866137d9565b90508181036040830152613f8681856137d9565b9050613f956060830184613c96565b95945050505050565b60006060820190508181036000830152613fb881866137d9565b9050613fc76020830185613c96565b8181036040830152613fd981846137d9565b9050949350505050565b60006020820190508181036000830152613ffc816138c2565b9050919050565b6000602082019050818103600083015261401c816138e5565b9050919050565b6000602082019050818103600083015261403c81613908565b9050919050565b6000602082019050818103600083015261405c8161392b565b9050919050565b6000602082019050818103600083015261407c8161394e565b9050919050565b6000602082019050818103600083015261409c81613971565b9050919050565b600060208201905081810360008301526140bc816139b7565b9050919050565b600060208201905081810360008301526140dc816139da565b9050919050565b600060208201905081810360008301526140fc816139fd565b9050919050565b6000602082019050818103600083015261411c81613a43565b9050919050565b6000602082019050818103600083015261413c81613a66565b9050919050565b6000602082019050818103600083015261415c81613a89565b9050919050565b6000602082019050818103600083015261417c81613aac565b9050919050565b6000602082019050818103600083015261419c81613af2565b9050919050565b600060208201905081810360008301526141bc81613b15565b9050919050565b600060208201905081810360008301526141dc81613b38565b9050919050565b600060208201905081810360008301526141fc81613b5b565b9050919050565b6000602082019050818103600083015261421c81613b7e565b9050919050565b6000602082019050818103600083015261423c81613bc4565b9050919050565b6000602082019050818103600083015261425c81613c2d565b9050919050565b6000602082019050818103600083015261427c81613c50565b9050919050565b60006020820190506142986000830184613c96565b92915050565b60006142a86142b9565b90506142b482826145e1565b919050565b6000604051905090565b600067ffffffffffffffff8211156142de576142dd614719565b5b6142e782614748565b9050602081019050919050565b600067ffffffffffffffff82111561430f5761430e614719565b5b61431882614748565b9050602081019050919050565b6000819050602082019050919050565b60008190508160005260206000209050919050565b600081519050919050565b600081519050919050565b600081519050919050565b6000602082019050919050565b600082825260208201905092915050565b600082825260208201905092915050565b600081905092915050565b600082825260208201905092915050565b600082825260208201905092915050565b600081905092915050565b60006143dd82614563565b91506143e883614563565b9250827fffffffffffffffffffffffffffffffffffffffffffffffffffffffffffffffff0382111561441d5761441c61468c565b5b828201905092915050565b600061443382614563565b915061443e83614563565b92508261444e5761444d6146bb565b5b828204905092915050565b600061446482614563565b915061446f83614563565b9250817fffffffffffffffffffffffffffffffffffffffffffffffffffffffffffffffff04831182151516156144a8576144a761468c565b5b828202905092915050565b60006144be82614563565b91506144c983614563565b9250828210156144dc576144db61468c565b5b828203905092915050565b60006144f282614543565b9050919050565b600061450482614543565b9050919050565b60008115159050919050565b60007fffffffff0000000000000000000000000000000000000000000000000000000082169050919050565b600073ffffffffffffffffffffffffffffffffffffffff82169050919050565b6000819050919050565b82818337600083830152505050565b60005b8381101561459a57808201518184015260208101905061457f565b838111156145a9576000848401525b50505050565b600060028204905060018216806145c757607f821691505b602082108114156145db576145da6146ea565b5b50919050565b6145ea82614748565b810181811067ffffffffffffffff8211171561460957614608614719565b5b80604052505050565b600061461d82614563565b91507fffffffffffffffffffffffffffffffffffffffffffffffffffffffffffffffff8214156146505761464f61468c565b5b600182019050919050565b600061466682614563565b915061467183614563565b925082614681576146806146bb565b5b828206905092915050565b7f4e487b7100000000000000000000000000000000000000000000000000000000600052601160045260246000fd5b7f4e487b7100000000000000000000000000000000000000000000000000000000600052601260045260246000fd5b7f4e487b7100000000000000000000000000000000000000000000000000000000600052602260045260246000fd5b7f4e487b7100000000000000000000000000000000000000000000000000000000600052604160045260246000fd5b6000601f19601f8301169050919050565b7f4552433732313a207472616e7366657220746f206e6f6e20455243373231526560008201527f63656976657220696d706c656d656e7465720000000000000000000000000000602082015250565b7f4552433732313a207472616e736665722066726f6d20696e636f72726563742060008201527f6f776e6572000000000000000000000000000000000000000000000000000000602082015250565b7f4552433732313a20746f6b656e20616c7265616479206d696e74656400000000600082015250565b7f646f6d61696e20616c7265616479206578697473000000000000000000000000600082015250565b7f4552433732313a207472616e7366657220746f20746865207a65726f2061646460008201527f7265737300000000000000000000000000000000000000000000000000000000602082015250565b7f4552433732313a20617070726f766520746f2063616c6c657200000000000000600082015250565b7f222c20226c656e677468223a2022000000000000000000000000000000000000600082015250565b7f4552433732313a206f70657261746f7220717565727920666f72206e6f6e657860008201527f697374656e7420746f6b656e0000000000000000000000000000000000000000602082015250565b7f43616c6c6572206d757374206265207265676973746572656400000000000000600082015250565b7f4552433732313a20617070726f76652063616c6c6572206973206e6f74206f7760008201527f6e6572206e6f7220617070726f76656420666f7220616c6c0000000000000000602082015250565b7f2e00000000000000000000000000000000000000000000000000000000000000600082015250565b7f416d6f756e74207061696420746f6f20736d616c6c20666f7220796f7572206460008201527f6f6d61696e206e616d6500000000000000000000000000000000000000000000602082015250565b7f4552433732313a2062616c616e636520717565727920666f7220746865207a6560008201527f726f206164647265737300000000000000000000000000000000000000000000602082015250565b7f4552433732313a206f776e657220717565727920666f72206e6f6e657869737460008201527f656e7420746f6b656e0000000000000000000000000000000000000000000000602082015250565b7f45524337323155524953746f726167653a2055524920736574206f66206e6f6e60008201527f6578697374656e7420746f6b656e000000000000000000000000000000000000602082015250565b7f227d000000000000000000000000000000000000000000000000000000000000600082015250565b7f4552433732313a206d696e7420746f20746865207a65726f2061646472657373600082015250565b7f45524337323155524953746f726167653a2055524920717565727920666f722060008201527f6e6f6e6578697374656e7420746f6b656e000000000000000000000000000000602082015250565b7f4552433732313a20617070726f76656420717565727920666f72206e6f6e657860008201527f697374656e7420746f6b656e0000000000000000000000000000000000000000602082015250565b7f4552433732314d657461646174613a2055524920717565727920666f72206e6f60008201527f6e6578697374656e7420746f6b656e0000000000000000000000000000000000602082015250565b7f6661696c656420746f2077697468647261770000000000000000000000000000600082015250565b7f7b226e616d65223a202200000000000000000000000000000000000000000000600082015250565b7f4552433732313a20617070726f76616c20746f2063757272656e74206f776e6560008201527f7200000000000000000000000000000000000000000000000000000000000000602082015250565b7f646174613a6170706c69636174696f6e2f6a736f6e3b6261736536342c000000600082015250565b50565b7f4552433732313a207472616e736665722063616c6c6572206973206e6f74206f60008201527f776e6572206e6f7220617070726f766564000000000000000000000000000000602082015250565b7f6e616d652063616e6e6f7420626520656d707479000000000000000000000000600082015250565b7f222c20226465736372697074696f6e223a20224120646f6d61696e206f6e207460008201527f6865206265696d61206e616d652073657276696365222c2022696d616765223a60208201527f2022646174613a696d6167652f7376672b786d6c3b6261736536342c20000000604082015250565b614e18816144e7565b8114614e2357600080fd5b50565b614e2f8161450b565b8114614e3a57600080fd5b50565b614e4681614517565b8114614e5157600080fd5b50565b614e5d81614563565b8114614e6857600080fd5b5056fe5265676973746572696e672025732e2573206f6e2074686520636f6e7472616374207769746820746f6b656e49442025644142434445464748494a4b4c4d4e4f505152535455565758595a6162636465666768696a6b6c6d6e6f707172737475767778797a303132333435363738392b2fa264697066735822122051481402b0cd1b4841741c7c7f622d056f9cd914ed98d028913675822256860964736f6c634300080400333c73766720786d6c6e733d22687474703a2f2f7777772e77332e6f72672f323030302f737667222077696474683d2232373022206865696768743d22323730222066696c6c3d226e6f6e65223e3c706174682066696c6c3d2275726c282342292220643d224d302030683237307632373048307a222f3e3c646566733e3c66696c7465722069643d22412220636f6c6f722d696e746572706f6c6174696f6e2d66696c746572733d2273524742222066696c746572556e6974733d227573657253706163654f6e55736522206865696768743d22323730222077696474683d22323730223e3c666544726f70536861646f772064783d2230222064793d22312220737464446576696174696f6e3d22322220666c6f6f642d6f7061636974793d222e323235222077696474683d223230302522206865696768743d2232303025222f3e3c2f66696c7465723e3c2f646566733e3c7061746820643d224d37322e3836332034322e393439632d2e3636382d2e3338372d312e3432362d2e35392d322e3139372d2e3539732d312e3532392e3230342d322e3139372e35396c2d31302e30383120362e3033322d362e383520332e3933342d31302e30383120362e303332632d2e3636382e3338372d312e3432362e35392d322e3139372e3539732d312e3532392d2e3230342d322e3139372d2e35396c2d382e3031332d342e37323161342e353220342e35322030203020312d312e3538392d312e363136632d2e3338342d2e3636352d2e3539342d312e3431382d2e3630382d322e313837762d392e3331632d2e3031332d2e3737352e3138352d312e3533382e3537322d322e32303861342e323520342e323520302030203120312e3632352d312e3539356c372e3838342d342e3539632e3636382d2e33383720312e3432362d2e353920322e3139372d2e353973312e3532392e32303420322e3139372e35396c372e38383420342e353961342e353220342e353220302030203120312e35383920312e363136632e3338342e3636352e35393420312e3431382e36303820322e31383776362e3033326c362e38352d342e303635762d362e303332632e3031332d2e3737352d2e3138352d312e3533382d2e3537322d322e32303861342e323520342e32352030203020302d312e3632352d312e3539354c34312e3435362032342e3539632d2e3636382d2e3338372d312e3432362d2e35392d322e3139372d2e3539732d312e3532392e3230342d322e3139372e35396c2d31342e38363420382e36353561342e323520342e32352030203020302d312e36323520312e353935632d2e3338372e36372d2e35383520312e3433342d2e35373220322e3230387631372e343431632d2e3031332e3737352e31383520312e3533382e35373220322e32303861342e323520342e323520302030203020312e36323520312e3539356c31342e38363420382e363535632e3636382e33383720312e3432362e353920322e3139372e353973312e3532392d2e32303420322e3139372d2e35396c31302e3038312d352e39303120362e38352d342e3036352031302e3038312d352e393031632e3636382d2e33383720312e3432362d2e353920322e3139372d2e353973312e3532392e32303420322e3139372e35396c372e38383420342e353961342e353220342e353220302030203120312e35383920312e363136632e3338342e3636352e35393420312e3431382e36303820322e31383776392e333131632e3031332e3737352d2e31383520312e3533382d2e35373220322e32303861342e323520342e32352030203020312d312e36323520312e3539356c2d372e38383420342e373231632d2e3636382e3338372d312e3432362e35392d322e3139372e3539732d312e3532392d2e3230342d322e3139372d2e35396c2d372e3838342d342e353961342e353220342e35322030203020312d312e3538392d312e363136632d2e3338352d2e3636352d2e3539342d312e3431382d2e3630382d322e313837762d362e3033326c2d362e383520342e30363576362e303332632d2e3031332e3737352e31383520312e3533382e35373220322e32303861342e323520342e323520302030203020312e36323520312e3539356c31342e38363420382e363535632e3636382e33383720312e3432362e353920322e3139372e353973312e3532392d2e32303420322e3139372d2e35396c31342e3836342d382e363535632e3635372d2e33393420312e3230342d2e393520312e3538392d312e363136732e3539342d312e3431382e3630392d322e3138375635352e353338632e3031332d2e3737352d2e3138352d312e3533382d2e3537322d322e32303861342e323520342e32352030203020302d312e3632352d312e3539356c2d31342e3939332d382e3738367a222066696c6c3d2223666666222f3e3c646566733e3c6c696e6561724772616469656e742069643d2242222078313d2230222079313d2230222078323d22323730222079323d2232373022206772616469656e74556e6974733d227573657253706163654f6e557365223e3c73746f702073746f702d636f6c6f723d2223636235656565222f3e3c73746f70206f66667365743d2231222073746f702d636f6c6f723d2223306364376534222073746f702d6f7061636974793d222e3939222f3e3c2f6c696e6561724772616469656e743e3c2f646566733e3c7465787420783d2233322e352220793d223233312220666f6e742d73697a653d223237222066696c6c3d2223666666222066696c7465723d2275726c282341292220666f6e742d66616d696c793d22506c7573204a616b617274612053616e732c44656a6156752053616e732c4e6f746f20436f6c6f7220456d6f6a692c4170706c6520436f6c6f7220456d6f6a692c73616e732d73657269662220666f6e742d7765696768743d22626f6c64223e",
  "linkReferences": {},
  "deployedLinkReferences": {}
}